:100000000C9435010C9466010C9466010C94660105
:100010000C9466010C9466010C9466010C946601C4
:100020000C9466010C9466010C9466010C946601B4
:100030000C9466010C9466010C9466010C946601A4
:100040000C9466010C9466010C9466010C94660194
:100050000C9466010C9466010C9466010C942505C1
:100060000C9466010C9466010C9466010C94660174
:100070000C9466010C9466010C9466010C94660164
:100080000C9466010C9466010C9466010C94660154
:100090000C9466010C9466010C9466010C94660144
:1000A0000C9466010C9466010C9466010C94660134
:1000B0000C9466010C9466010C9466010C94660124
:1000C0000C9466010C9466010C9466010C94660114
:1000D0000C9466010C9466010C9466010C94660104
:1000E0000C9466010C947D020C946B020C948903B1
:1000F0000C9446020C9458020C946F020C945B0210
:100100000C9487020C9429030C9461020C94540201
:100110000C9450020C94FB010C9465020C94860222
:100120000C948B020C941F050C94B8020C94880359
:100130000C9481020C94E9020C9473020C947902E1
:100140000C944C020C94D1080000210024002700DC
:100150002A002D00300033000101000004010701D6
:100160000A0100002200250028002B002E0031008B
:10017000340002010000050108010B01000020000D
:100180002300260029002C002F003200000100006F
:10019000030106010901050505050705080808080A
:1001A000020202020A0A080804040404010101010F
:1001B000010101010303030303030303040707070A
:1001C0000C0C0C0C0C0C0C0C0202020206060606AF
:1001D000060606060B0B0B0B0B0B0B0B010210207C
:1001E000200808102040102040800201020108046D
:1001F0000201010204081020408080402010080401
:100200000201800402018040201008040201080459
:10021000020101020408102040800102040810209D
:10022000408000000A0B02090C0D0E0807030401B0
:1002300000000000000000000000000000000000BE
:10024000000000000000000000000000000012118B
:10025000100000000000000000000000000000008E
:100260000000000000000000D10811241FBECFEFE5
:10027000D1E2DEBFCDBF00E00CBF12E0A0E0B2E0F3
:10028000EEE7F7E100E00BBF02C007900D92A63643
:10029000B107D9F723E0A6E6B2E001C01D92A43071
:1002A000B207E1F711E0C5E3D1E000E006C0219715
:1002B0000109802FFE010E94A70BC433D10780E003
:1002C0000807A9F70E946F050C94BD0B0C94000061
:1002D00096E0899FD0011124A358BD4F90967C933E
:1002E0006E935F9791E091969C939197E091EA02CB
:1002F000F091EB029091E902992339F0309751F097
:10030000811108C0809199021994309719F05C9678
:100310008C91FACF0895CF92DF92EF92FF920F93D4
:100320001F9396E0899FF0011124E358FD4F11A21D
:10033000278D30A12130310551F178F0223031057F
:1003400009F451C02330310509F452C01F910F91B7
:10035000FF90EF90DF90CF9008956623B9F361E0AE
:1003600070E00E9468012FB7F89480917902909113
:100370007A02A0917B02B0917C022FBF8093D502BC
:100380009093D602A093D702B093D802DFCF9FB745
:10039000F894C0907902D0907A02E0907B02F090BD
:1003A0007C029FBF0091D5021091D6022091D70206
:1003B0003091D802C01AD10AE20AF30A0091E7028A
:1003C0001091E80230E020E00C151D052E053F05D8
:1003D00050F462E070E01F910F91FF90EF90DF907A
:1003E000CF900C9468016111B1CF63E070E0F3CF5E
:1003F00070E060E0F0CFAF92BF92CF92DF92EF92C9
:10040000FF920F931F93CF93DF936C017B018B01BE
:10041000040F151FEB015E01AE18BF08C017D1070E
:1004200059F06991D601ED91FC910190F081E02D98
:10043000C6011995892B79F7C501DF91CF911F91DD
:100440000F91FF90EF90DF90CF90BF90AF90089505
:100450008150823108F05AC0E82FF0E08827EC5C28
:10046000FD4F8F4F0C94A70B5402580246024C02CA
:10047000500286025B02610265026B026F02730228
:1004800079027D028602810287028B0280918000C0
:100490008F77809380000895809180008F7DF9CFC1
:1004A00080918000877FF5CF84B58F7784BD0895D4
:1004B00084B58F7DFBCF8091B0008F778093B000A3
:1004C00008958091B0008F7DF9CF809190008F7753
:1004D000809390000895809190008F7DF9CF809156
:1004E0009000877FF5CF8091A0008F778093A00048
:1004F00008958091A0008F7DF9CF8091A000877F23
:10050000F5CF809120018F7780932001089580910D
:1005100020018F7DF9CF80912001877FF5CFCF9388
:10052000DF93282F30E0F901EE5DFD4F8491F90152
:10053000E452FE4FD491F901EA56FE4FC491CC2308
:10054000A1F081110E942802EC2FF0E0EE0FFF1FB6
:10055000E458FE4FA591B491EC91ED2381E090E039
:1005600009F480E0DF91CF91089580E090E0FACF28
:10057000862F0C948F021F93CF93DF93282F30E0A8
:10058000F901EE5DFD4F8491F901E452FE4FD491E3
:10059000F901EA56FE4FC491CC23A9F0162F811120
:1005A0000E942802EC2FF0E0EE0FFF1FEE59FE4FE5
:1005B000A591B4918FB7F894EC91111108C0D09522
:1005C000DE23DC938FBFDF91CF911F910895DE2B47
:1005D000F8CF862F642F0C94BB02CF93DF9390E06B
:1005E000FC01E452FE4F24918A569E4FFC018491F7
:1005F0008823C9F090E0880F991FFC01E85BFE4F4B
:10060000A591B491FC01EE59FE4FC591D4916111B1
:100610000DC09FB7F8948C91209582238C9388818C
:10062000282328839FBFDF91CF910895623051F432
:100630009FB7F8943C91822F809583238C93E88117
:100640002E2BEFCF8FB7F894EC912E2B2C938FBFDE
:10065000EACF862F642F0C94ED023FB7F894809177
:10066000670290916802A0916902B0916A0226B572
:10067000A89B05C02F3F19F00196A11DB11D3FBFDA
:10068000BA2FA92F982F8827BC01CD01620F711DA9
:10069000811D911D42E0660F771F881F991F4A95A3
:1006A000D1F708958F929F92AF92BF92CF92DF922F
:1006B000EF92FF920E942D034B015C0184EFC82E44
:1006C000DD24D394E12CF12C0E942D0368197909C3
:1006D0008A099B09683E734081059105A8F321E0D2
:1006E000C21AD108E108F10888EE880E83E0981E4E
:1006F000A11CB11CC114D104E104F10429F7FF903D
:10070000EF90DF90CF90BF90AF909F908F90089523
:10071000089590E080E00895FC0101900020E9F741
:100720003197AF01481B590BBC018CEE92E00C9441
:10073000FB018F929F92AF92BF920F931F93CF9323
:10074000DF93CDB7DEB7A1970FB6F894DEBF0FBE2B
:10075000CDBF19A2423008F44AE08E010F5D1F4F51
:10076000842E912CB12CA12CA50194010E94850B03
:10077000E62FB901CA01EA30F4F4E05DD801EE9346
:100780008D01232B242B252B79F790E080E0109707
:1007900019F0CD010E948C03A1960FB6F894DEBF2C
:1007A0000FBECDBFDF91CF911F910F91BF90AF9042
:1007B0009F908F900895E95CE1CFCF93DF93EC0198
:1007C00060E08E810E94BB0261E08E810E94BB02CC
:1007D00060E08E810E94BB028BE891E00197F1F707
:1007E000DF91CF910895CF92DF92EF92FF920F9316
:1007F0001F93CF93DF936C017C0187E0E80EF11C1F
:10080000D0E0C0E0062F10E0B8010C2E02C07595B4
:1008100067950A94E2F76170F70181917F010E9468
:10082000BB022196C430D10579F7C601DF91CF9183
:100830001F910F91FF90EF90DF90CF900C94DD030C
:10084000CF92DF92EF92FF920F931F93CF93DF939C
:10085000EC01F62E642F8C810E94BB028D818F3FAC
:1008600019F060E00E94BB020F2D10E08F8584FF1D
:1008700025C06E0187E0C80ED11CF12CE12CB80117
:100880000E2C02C0759567950A94E2F76170F60127
:1008900081916F010E94BB02FFEFEF1AFF0A88E00F
:1008A000E816F10461F7CE01DF91CF911F910F910E
:1008B000FF90EF90DF90CF900C94DD03B80184E0BF
:1008C000759567958A95E1F7CE010E94F3036F2D28
:1008D000CE01DF91CF911F910F91FF90EF90DF90AC
:1008E000CF900C94F30340E0682F8CEE92E00C94D0
:1008F0002004CF93DF93823029F49091FB0298601B
:100900009093FB028093FF021092000380E4809397
:10091000010380E18093020380E58093030361E09B
:100920008091F0020E94ED028091F1028F3F19F058
:1009300061E00E94ED0261E08091F2020E94ED020E
:10094000CCEED2E09E012C5E32408091FB0284FD11
:100950000BC084E090E021962817390744F461E049
:100960008E810E94ED02EECF88E090E0F4CF8BE321
:100970009DE00197F1F760E08091F0020E94BB02D8
:1009800060E08091F2020E94BB028091F1028F3FF1
:1009900019F060E00E94BB028091FB0284FD39C027
:1009A00063E08CEE92E00E94F303CBE4D6E4CE0148
:1009B0000197F1F763E08CEE92E00E94F303219738
:1009C000F1F763E08CEE92E00E94F30383E592E09E
:1009D0000197F1F762E08CEE92E00E94F3038091C0
:1009E000FB0280620E94730484E08093FC028CE02E
:1009F0000E94730481E00E9473048BE39FE10197DE
:100A0000F1F782E08093FD0286E0DF91CF910C94B4
:100A1000730480620E9473048BE496E40197F1F7FB
:100A20008091FB0280620E94730483E592E001974B
:100A3000F1F78091FB0280620E947304D0CF41E005
:100A40000E94200481E090E008951F920F920FB65B
:100A50000F9211242F933F938F939F93AF93BF9344
:100A60008091790290917A02A0917B02B0917C02F0
:100A70003091660223E0230F2D3758F50196A11D12
:100A8000B11D209366028093790290937A02A0931D
:100A90007B02B0937C028091670290916802A091E2
:100AA0006902B0916A020196A11DB11D809367028F
:100AB00090936802A0936902B0936A02BF91AF91CC
:100AC0009F918F913F912F910F900FBE0F901F908C
:100AD000189526E8230F0296A11DB11DD2CF789458
:100AE00084B5826084BD84B5816084BD85B5826033
:100AF00085BD85B5816085BD80916E0081608093E4
:100B00006E0010928100809181008260809381004C
:100B1000809181008160809381008091800081605C
:100B2000809380008091B10084608093B1008091B7
:100B3000B00081608093B0008091910082608093CA
:100B4000910080919100816080939100809190004C
:100B50008160809390008091A10082608093A100C9
:100B60008091A10081608093A1008091A0008160AC
:100B70008093A00080912101826080932101809167
:100B80002101816080932101809120018160809307
:100B9000200180917A00846080937A0080917A00AD
:100BA000826080937A0080917A00816080937A00DD
:100BB00080917A00806880937A001092C10060E092
:100BC00087E30E94ED0282E00E94790461E08FE2F7
:100BD0000E94ED0261E080E30E94ED0260E08CE1A2
:100BE0000E94ED0261E08DE10E94ED0262E088E387
:100BF0000E94ED0261E085E30E94ED02812C912CC0
:100C0000540183944BE3642E4FE1742E41E04093F2
:100C1000E9028FB7F8944091790250917A0260917D
:100C20007B0270917C028FBF8091D9029091DA0291
:100C3000A091DB02B091DC02481B590B6A0B7B0BC5
:100C40008091E5029091E602B0E0A0E0841795075C
:100C5000A607B70708F0E9C1C0E08091E302C81712
:100C600060F4E091DF02F091E002EC0FF11D62E030
:100C700080810E94ED02CF5FF0CF512C8091E40281
:100C8000581608F05FC0052D10E0E091E102F091E8
:100C9000E202E00FF11F61E080810E94ED02E0912D
:100CA000E102F091E202E00FF11F60E080810E941A
:100CB000BB02D501C401052C04C0880F991FAA1FCF
:100CC000BB1F0A94D2F76C017C01E094F094412C94
:100CD0008091E3024816F8F4C42DD0E0E091DF02E1
:100CE000F091E002EC0FFD1F80810E948F0224969C
:100CF000CC0FDD1FC358DD4F892B41F488819981CA
:100D00008C299D29998388834394E2CF8881998196
:100D10008E219F21F7CFE091E102F091E202E00FF6
:100D2000F11F61E080810E94BB028091E1029091FD
:100D3000E202080F191F60E0F80180810E94ED02B5
:100D400053949CCF0DE712E0E8018F8D98A1892B79
:100D500031F41C8E8FEF9FEF9E8F8D8F19A22696F8
:100D6000E9EBF2E0EC17FD0781F7F12C8091E3024B
:100D7000F81608F053C0E12CCF2CD12CCC0CDD1C84
:100D8000C6018B579D4F6C012091E402E21608F0DA
:100D900043C0F601608171810E2C02C07695679583
:100DA0000A94E2F7F29E900111242E0D311DEDE719
:100DB000F2E080E0458D568D2417350709F4EFC128
:100DC0008F5F36968A30B1F760FF24C0EDE7F2E01E
:100DD00090E080E0448D411118C0E091DD02F09177
:100DE000DE02E20FF31F608146E0489FF001499F59
:100DF000F00D1124E358FD4F648F368F258F10A21C
:100E0000178E61E00E948B0105C0019636968A30EC
:100E1000910501F7E394B8CFF394A8CF80E0F801EF
:100E200091A19111892F0A5F1F4F0C171D07B9F768
:100E30009FB7F8944091790250917A0260917B02B9
:100E400070917C029FBF4093D9025093DA02609365
:100E5000DB027093DC02882309F4E7C080917702FB
:100E60009091780220919E02222309F4DEC0209105
:100E70009C0230919D022130310509F0D6C040918D
:100E800099024111D5C08091770290917802049720
:100E9000C9F444E050E063E172E083E792E00E942D
:100EA000AF0B61E0892B09F0CFC08FE20E94BB023B
:100EB0000E94520360E08FE20E94BB02109278020F
:100EC0001092770280917B00877F80937B00F1E412
:100ED000F0937C0080917A00806480937A00809106
:100EE0007A0086FDFCCF8091780060917900762FA2
:100EF000682F072E000C880B990B0E945E0A20E0D9
:100F000030EC4FE754E40E94BB0920E030E44CE9A8
:100F100055E40E94130B20E030E040E251E40E94CF
:100F2000BB096B017C01C0926F02D0927002E0920B
:100F30007102F092720220916B0230916C0240912A
:100F40006D0250916E020E94B609882309F451C0C7
:100F5000C0926B02D0926C02E0926D02F0926E022F
:100F600081E00E947304C3010197F1F782E00E94BF
:100F70007304C3010197F1F78DE292E00E948C03A4
:100F8000C0906F02D0907002E0907102F0907202F7
:100F9000A7019601C701B6010E94800B882309F4BE
:100FA0005BC089E392E00E948C03E091FF02E23093
:100FB00008F0E6C0E150F0E0E451FD4F848980681C
:100FC0000E947304C0906F02D0907002E090710292
:100FD000F090720220E030E040EF51E4C701B6012A
:100FE0000E940E0B18160CF0CDC085E492E00E9412
:100FF0008C038CE10E948F0261E0892B09F460E090
:101000008DE10E94BB0288E30E948F0261E001979C
:1010100009F060E085E30E94BB0280E090E0892B4C
:1010200009F4F4CD0E940000F1CD1092E9022BCF1B
:101030009C012F5F3F4F30937802209377028D58A9
:101040009D4FFC0140831FCF80E30E94BB020E94A2
:10105000520360E080E330CF16012701E89457F88F
:101060002FEF3FEF4FE75FE7C201B1010E94800B16
:1010700081110DC02FEF3FEF4FE75FE7C201B101D4
:101080000E94B60918161CF48DE392E08CCF2FEF66
:101090003FEF4FE75FE4C701B6010E940E0B181641
:1010A0001CF481E492E07FCF2FEF3FEF4FE75FEC3E
:1010B000C701B6010E94B60987FDF3CF20E030E0FA
:1010C000A901C701B6010E94B60987FF0AC041E025
:1010D0006DE28CEE92E00E942004F7FAF094F7F8AB
:1010E000F0942AE037ED43EA5BE3C701B6010E94C2
:1010F0004A091B012C010E942D0A6B017C010E94F0
:101100005C0A9B01AC01C201B1010E9449091B01AB
:101110002C014AE0C701B6010E94990341E06EE24A
:101120008CEE92E00E94200420E030E040E251E4A6
:10113000C201B1010E94130B1B012C010E942D0A58
:101140006B01F12CE12C4AE0C701B6010E94990322
:10115000C701B6010E945C0A9B01AC01C201B1014A
:101160000E94490920E030E040E251E40E94130B64
:101170000E942D0A90E080E04AE00E94990315CF7A
:10118000E1E019CF20E030E040EA51E4C701B601C8
:101190000E94B60987FF2DCF87E592E028CF6170C6
:1011A00031CE1092EF021092EE0285E292E090931F
:1011B000ED028093EC0286E18093F0028FEF809342
:1011C000F10287E18093F20288E18093F30289E1E2
:1011D0008093F4028AE18093F5028BE18093F6021A
:1011E0001092F7021092F8021092F9021092FA028D
:1011F0001092FB0281E00E94790410927F0210920B
:10120000830210928202109284028BE192E090930A
:101210007E0280937D02E9E9F2E01082148213825B
:101220001582369682E0E53DF807B9F783E092E053
:101230009093E0028093DF0280E092E09093E202DC
:101240008093E10284E08093E30283E08093E402F0
:1012500087E092E09093DE028093DD028AE090E0E6
:101260009093E6028093E50284EF91E09093E80288
:101270008093E7021092EB021092EA021092D902D8
:101280001092DA021092DB021092DC021092E90254
:1012900008955058BB27AA270E9461090C94D40ACC
:1012A0000E94C60A38F00E94CD0A20F039F49F3F10
:1012B00019F426F40C94C30A0EF4E095E7FB0C94A1
:1012C000BD0AE92F0E94E50A58F3BA1762077307AF
:1012D0008407950720F079F4A6F50C94070B0EF41B
:1012E000E0950B2EBA2FA02D0B01B90190010C0136
:1012F000CA01A0011124FF27591B99F0593F50F44E
:10130000503E68F11A16F040A22F232F342F4427A5
:10131000585FF3CF469537952795A795F04053959D
:10132000C9F77EF41F16BA0B620B730B840BBAF06D
:101330009150A1F0FF0FBB1F661F771F881FC2F7D8
:101340000EC0BA0F621F731F841F48F487957795EC
:101350006795B795F7959E3F08F0B0CF9395880FA6
:1013600008F09927EE0F9795879508950E94990A9E
:1013700008F481E008950E94CF090C94D40A0E94D9
:10138000CD0A58F00E94C60A40F029F45F3F29F0C8
:101390000C94BD0A51110C94080B0C94C30A0E94C2
:1013A000E50A68F39923B1F3552391F3951B550B87
:1013B000BB27AA2762177307840738F09F5F5F4F28
:1013C000220F331F441FAA1FA9F335D00E2E3AF067
:1013D000E0E832D091505040E695001CCAF72BD07F
:1013E000FE2F29D0660F771F881FBB1F26173707D0
:1013F0004807AB07B0E809F0BB0B802DBF01FF2702
:1014000093585F4F3AF09E3F510578F00C94BD0A17
:101410000C94080B5F3FE4F3983ED4F386957795E0
:101420006795B795F7959F5FC9F7880F911D9695BA
:10143000879597F90895E1E0660F771F881FBB1F16
:10144000621773078407BA0720F0621B730B840BC3
:10145000BA0BEE1F88F7E09508950E94ED0A88F018
:101460009F5798F0B92F9927B751B0F0E1F0660F68
:10147000771F881F991F1AF0BA95C9F714C0B130A9
:1014800091F00E94070BB1E008950C94070B672FB1
:10149000782F8827B85F39F0B93FCCF386957795D8
:1014A0006795B395D9F73EF49095809570956195C1
:1014B0007F4F8F4F9F4F0895E89409C097FB3EF4EC
:1014C00090958095709561957F4F8F4F9F4F992391
:1014D000A9F0F92F96E9BB279395F695879577950F
:1014E0006795B795F111F8CFFAF4BB0F11F460FFCF
:1014F0001BC06F5F7F4F8F4F9F4F16C0882311F027
:1015000096E911C0772321F09EE8872F762F05C03A
:10151000662371F096E8862F70E060E02AF09A95D5
:10152000660F771F881FDAF7880F9695879597F9CA
:101530000895990F0008550FAA0BE0E8FEEF161664
:101540001706E807F907C0F012161306E407F507B7
:1015500098F0621B730B840B950B39F40A2661F02B
:10156000232B242B252B21F408950A2609F4A140CE
:10157000A6958FEF811D811D089597F99F6780E8DB
:1015800070E060E008959FEF80EC089500240A94D5
:101590001616170618060906089500240A9412164E
:1015A0001306140605060895092E0394000C11F481
:1015B000882352F0BB0F40F4BF2B11F460FF04C02E
:1015C0006F5F7F4F8F4F9F4F089557FD9058440F87
:1015D000551F59F05F3F71F04795880F97FB991F92
:1015E00061F09F3F79F0879508951216130614064F
:1015F000551FF2CF4695F1DF08C0161617061806DC
:10160000991FF1CF86957105610508940895E894B6
:10161000BB2766277727CB0197F908950E94990A7F
:1016200008F48FEF08950E94260B0C94D40A0E94B0
:10163000C60A38F00E94CD0A20F0952311F00C94D0
:10164000BD0A0C94C30A11240C94080B0E94E50AED
:1016500070F3959FC1F3950F50E0551F629FF00105
:10166000729FBB27F00DB11D639FAA27F00DB11D1E
:10167000AA1F649F6627B00DA11D661F829F2227A7
:10168000B00DA11D621F739FB00DA11D621F839F2E
:10169000A00D611D221F749F3327A00D611D231F04
:1016A000849F600D211D822F762F6A2F11249F5752
:1016B00050409AF0F1F088234AF0EE0FFF1FBB1F55
:1016C000661F771F881F91505040A9F79E3F510514
:1016D00080F00C94BD0A0C94080B5F3FE4F3983E35
:1016E000D4F3869577956795B795F795E7959F5FBE
:1016F000C1F7FE2B880F911D9695879597F9089550
:101700000E94990A880B990B0895A1E21A2EAA1B30
:10171000BB1BFD010DC0AA1FBB1FEE1FFF1FA217A1
:10172000B307E407F50720F0A21BB30BE40BF50B9E
:10173000661F771F881F991F1A9469F76095709527
:10174000809590959B01AC01BD01CF010895EE0FEE
:10175000FF1F881F8BBF0790F691E02D1994FB01A6
:10176000DC014150504030F08D910190801919F406
:0E1770000020B9F7881B990B0895F894FFCF5D
:10177E002C2D2E313233343132333435363738392D
:10178E002A302331323334000000002903E902B835
:10179E0002000000001F05FB0189038803536963E3
:1017AE00616B6C696B203D20006E616E00696E6628
:1017BE00006F766600536963616B6C696B205975B7
:1017CE006B73656C646900536963616B6C696B2044
:0617DE00447573747500F0
:00000001FF
